:020000040000fa
:080000000002040000000000f2
:020000040000fa
:100400000f8020000eff27000e0188000000000072
:100410000c00070080682000010020000f0007008a
:10042000000020000000e000020032000000020096
:1004300000000000cc050200000000000040da00cf
:100440000000fe00e00020000000e000020032009a
:10045000002020009001880000000600a102880012
:10046000800078000000eb001a003700e2804000b6
:1004700054a0b4009101ba00e280400054a0b4003e
:100480009102ba00e280400054a0b4000002eb00e8
:10049000472bde00f507b200a6018800602ce100c2
:1004a00008003a000049eb000201e80002003900b0
:1004b0003420ec0002f0a0008301e900f9ff3e00c7
:1004c000040037006128e100010032000082eb00e7
:1004d000040007001101ba000200e000e3ff3a0047
:1004e0000000060004d0a300e20f49001c00390000
:1004f000810278003549ba000201e80002003900a3
:100500003420ec0002f0a0008301e9000f0032006b
:100510002549ba000201e800020039003420ec004d
:1005200002f0a0008301e900080032000400e000ae
:100530000600320015c9ba000201e80002003900c5
:100540003420ec0002f0a0008301e9008180e80083
:1005500054a0b4000300e000e2ff3a0000000600ef
:100560009102ba00055978008301e900f7ff3200d3
:10057000c82ade00055978008301e900f3ff320044
:100580000400e000f1ff320011d9ba00eeff37009d
:080590000040da000000fe004b
:020000040000fa
:020000040005f5
:0457f400ffec0000c6
:020000040000fa
:020000040005f5
:0457f800ae1b0000e4
:020000040000fa
:020000040005f5
:0457fc007f3e0000ec
:020000040000fa
:10000800c8020000c8020000c8020000c8020000c0
:10001800c8020000c8020000c8020000c8020000b0
:10002800c8020000c8020000c8020000c8020000a0
:10003800c8020000c8020000c8020000c802000090
:020000040000fa
:020000040000fa
:1005980030780000353500000a0d000000300000fa
:0c05a80078610000610a00000d000000f6
:020000040000fa
:1005b4000200fa00004f780060c2bf006240600091
:1005c4000004e000fcff3a001e80fb00401388009a
:1005d40060c2bf00624060000004e000fcff320023
:1005e4000080fa00000006000200fa000040eb0060
:1005f400004f780060c2bf00614060000004e0006a
:10060400fcff320040138000004f78001e80fb0086
:100614000080fa00000006000000fa000000eb0071
:1006240000138800f0232000101388000000eb0062
:100634002013880061e2a8000080fa000000060090
:100644000000fa00e862a900d802a80020302300c4
:10065400103a880000022000203a8800800120001f
:10066400c011880031e2a80031a2a9003182a9009a
:100674003162a9001123200091407800c0cfb3005b
:1006840000c0600031e2b70030e2a80030c2a90027
:1006940030a2a9003082a9003062a9000123200001
:1006a4009140780090cfb30000c0600030e2b70002
:1006b4003002a90033c2a90033e2a90033a2a90081
:1006c4003362a9003342a90032c2bf00f043b20032
:1006d40032e2b70032a2a90087e0a90087c0a900ce
:1006e40097c0a90031e2a8003282a9003342a800d1
:1006f4000080fa00000006000200fa00004f7800b3
:1007040033c2bf00624060000004e000fcff3a0016
:100714001e80fb00a01188000080fa000000060083
:100724000200fa00000f7800040037001e00780071
:10073400104078001e0fe800efff07001e0078004d
:10074400104078000004e000f8ff3a000080fa004e
:10075400000006000200fa0097c0a80087c0bf008e
:100764000044b2000004e000fcff3200b01180003d
:10077400004f78003222a90087c0a90097c0a900c1
:100784001e80fb000080fa00000006000000fa0052
:100794000000eb00002788000002200010278800da
:1007a40000012000202788000000eb00302788008b
:1007b4000000eb00402788000000eb005027880071
:1007c4000008200060278800e204a900e224a900b0
:1007d400113a8000f00b20000081600061042000c9
:1007e4007005200023742000814978008049780036
:1007f40082497800616a20009140780000ccb300ff
:1008040000c06000b040b300a6e6b700016d200050
:100814009140780000ccb30000c060005040b300a9
:10082400d0e6b700216c20009140780000ccb300e2
:1008340000c06000b040b300c2e6b700116c2000f5
:100844009140780000ccb30000c06000a040b30029
:10085400c1e6b700c16a20009140780000ccb30023
:1008640000c06000ace6b700113a8000000420002c
:1008740000817000610420007005200023742000b2
:10088400814978008049780082497800d902a9001a
:10089400c822a900c802a8000080fa0000000600cf
:1008a4000800fa0020079800310798002e009000f5
:1008b400be009000008fbe00b00037000080eb0047
:1008c4008080eb001e0f40005e974800000000008f
:1008d4000000000000000000000000000000000014
:1008e4000000000000000000000000000000000004
:1008f40000000000000000000000000000000000f4
:1009040000000000000000000000000000000000e3
:100b74000000000000000000000000001e00be0095
:100b8400e00f5000e08f58004cff3c000080fa005a
:100b9400000006000000fa0040a7a900fbfe0700c1
:100ba40040062000010020003dff0700a4fe0700ce
:100bb400400620000100200039ff070096fe0700d0
:100bc40030c3b3007afe0700c02c2800d4fe07000f
:100bd400803821000100200031ff07008038210007
:100be400010020002eff07008038210001002000b2
:100bf4002bff0700803821000100200028ff070098
:100c0400803821000100200025ff070080382100e2
:100c14000100200022ff070080382100010020008d
:100c24001fff070080382100010020001cff07007f
:100c3400803821000100200019ff070080382100be
:100c44000100200016ff0700803821000100200069
:100c540013ff0700803821000100200010ff070067
:100c6400c0ccb30052fe0700302d2800acfe0700b4
:100c74000000000000000000803821000100200076
:100c840007ff0700803821000100200004ff07004f
:100c9400803821000100200001ff07008038210076
:100ca40001002000fefe0700803821000100200022
:100cb400fbfe07008038210001002000f8fe070039
:100cc4008038210001002000f5fe07008038210053
:100cd40001002000f2fe07008038210001002000fe
:100ce400effe07008038210001002000ecfe070021
:100cf4008038210001002000e9fe0700803821002f
:0c0d040001002000e6fe0700adff3700f4
:020000040000fa
:040d100000000000df
:00000001FF
